{
  "_format": "hh-sol-artifact-1",
  "contractName": "InvestorSBT",
  "sourceName": "contracts/InvestorSBT.sol",
  "abi": [
    {
      "inputs": [
        {
          "internalType": "address",
          "name": "issuer",
          "type": "address"
        }
      ],
      "stateMutability": "nonpayable",
      "type": "constructor"
    },
    {
      "inputs": [],
      "name": "AccessControlBadConfirmation",
      "type": "error"
    },
    {
      "inputs": [
        {
          "internalType": "address",
          "name": "account",
          "type": "address"
        },
        {
          "internalType": "bytes32",
          "name": "neededRole",
          "type": "bytes32"
        }
      ],
      "name": "AccessControlUnauthorizedAccount",
      "type": "error"
    },
    {
      "inputs": [
        {
          "internalType": "address",
          "name": "sender",
          "type": "address"
        },
        {
          "internalType": "uint256",
          "name": "tokenId",
          "type": "uint256"
        },
        {
          "internalType": "address",
          "name": "owner",
          "type": "address"
        }
      ],
      "name": "ERC721IncorrectOwner",
      "type": "error"
    },
    {
      "inputs": [
        {
          "internalType": "address",
          "name": "operator",
          "type": "address"
        },
        {
          "internalType": "uint256",
          "name": "tokenId",
          "type": "uint256"
        }
      ],
      "name": "ERC721InsufficientApproval",
      "type": "error"
    },
    {
      "inputs": [
        {
          "internalType": "address",
          "name": "approver",
          "type": "address"
        }
      ],
      "name": "ERC721InvalidApprover",
      "type": "error"
    },
    {
      "inputs": [
        {
          "internalType": "address",
          "name": "operator",
          "type": "address"
        }
      ],
      "name": "ERC721InvalidOperator",
      "type": "error"
    },
    {
      "inputs": [
        {
          "internalType": "address",
          "name": "owner",
          "type": "address"
        }
      ],
      "name": "ERC721InvalidOwner",
      "type": "error"
    },
    {
      "inputs": [
        {
          "internalType": "address",
          "name": "receiver",
          "type": "address"
        }
      ],
      "name": "ERC721InvalidReceiver",
      "type": "error"
    },
    {
      "inputs": [
        {
          "internalType": "address",
          "name": "sender",
          "type": "address"
        }
      ],
      "name": "ERC721InvalidSender",
      "type": "error"
    },
    {
      "inputs": [
        {
          "internalType": "uint256",
          "name": "tokenId",
          "type": "uint256"
        }
      ],
      "name": "ERC721NonexistentToken",
      "type": "error"
    },
    {
      "anonymous": false,
      "inputs": [
        {
          "indexed": true,
          "internalType": "address",
          "name": "owner",
          "type": "address"
        },
        {
          "indexed": true,
          "internalType": "address",
          "name": "approved",
          "type": "address"
        },
        {
          "indexed": true,
          "internalType": "uint256",
          "name": "tokenId",
          "type": "uint256"
        }
      ],
      "name": "Approval",
      "type": "event"
    },
    {
      "anonymous": false,
      "inputs": [
        {
          "indexed": true,
          "internalType": "address",
          "name": "owner",
          "type": "address"
        },
        {
          "indexed": true,
          "internalType": "address",
          "name": "operator",
          "type": "address"
        },
        {
          "indexed": false,
          "internalType": "bool",
          "name": "approved",
          "type": "bool"
        }
      ],
      "name": "ApprovalForAll",
      "type": "event"
    },
    {
      "anonymous": false,
      "inputs": [
        {
          "indexed": true,
          "internalType": "address",
          "name": "to",
          "type": "address"
        },
        {
          "indexed": true,
          "internalType": "uint256",
          "name": "tokenId",
          "type": "uint256"
        },
        {
          "indexed": false,
          "internalType": "bytes32",
          "name": "credentialHash",
          "type": "bytes32"
        }
      ],
      "name": "Minted",
      "type": "event"
    },
    {
      "anonymous": false,
      "inputs": [
        {
          "indexed": true,
          "internalType": "uint256",
          "name": "tokenId",
          "type": "uint256"
        },
        {
          "indexed": false,
          "internalType": "uint64",
          "name": "newExpiry",
          "type": "uint64"
        }
      ],
      "name": "Renewed",
      "type": "event"
    },
    {
      "anonymous": false,
      "inputs": [
        {
          "indexed": true,
          "internalType": "uint256",
          "name": "tokenId",
          "type": "uint256"
        }
      ],
      "name": "Revoked",
      "type": "event"
    },
    {
      "anonymous": false,
      "inputs": [
        {
          "indexed": true,
          "internalType": "bytes32",
          "name": "role",
          "type": "bytes32"
        },
        {
          "indexed": true,
          "internalType": "bytes32",
          "name": "previousAdminRole",
          "type": "bytes32"
        },
        {
          "indexed": true,
          "internalType": "bytes32",
          "name": "newAdminRole",
          "type": "bytes32"
        }
      ],
      "name": "RoleAdminChanged",
      "type": "event"
    },
    {
      "anonymous": false,
      "inputs": [
        {
          "indexed": true,
          "internalType": "bytes32",
          "name": "role",
          "type": "bytes32"
        },
        {
          "indexed": true,
          "internalType": "address",
          "name": "account",
          "type": "address"
        },
        {
          "indexed": true,
          "internalType": "address",
          "name": "sender",
          "type": "address"
        }
      ],
      "name": "RoleGranted",
      "type": "event"
    },
    {
      "anonymous": false,
      "inputs": [
        {
          "indexed": true,
          "internalType": "bytes32",
          "name": "role",
          "type": "bytes32"
        },
        {
          "indexed": true,
          "internalType": "address",
          "name": "account",
          "type": "address"
        },
        {
          "indexed": true,
          "internalType": "address",
          "name": "sender",
          "type": "address"
        }
      ],
      "name": "RoleRevoked",
      "type": "event"
    },
    {
      "anonymous": false,
      "inputs": [
        {
          "indexed": true,
          "internalType": "address",
          "name": "from",
          "type": "address"
        },
        {
          "indexed": true,
          "internalType": "address",
          "name": "to",
          "type": "address"
        },
        {
          "indexed": true,
          "internalType": "uint256",
          "name": "tokenId",
          "type": "uint256"
        }
      ],
      "name": "Transfer",
      "type": "event"
    },
    {
      "inputs": [],
      "name": "DEFAULT_ADMIN_ROLE",
      "outputs": [
        {
          "internalType": "bytes32",
          "name": "",
          "type": "bytes32"
        }
      ],
      "stateMutability": "view",
      "type": "function"
    },
    {
      "inputs": [],
      "name": "ISSUER_ROLE",
      "outputs": [
        {
          "internalType": "bytes32",
          "name": "",
          "type": "bytes32"
        }
      ],
      "stateMutability": "view",
      "type": "function"
    },
    {
      "inputs": [
        {
          "internalType": "address",
          "name": "",
          "type": "address"
        },
        {
          "internalType": "uint256",
          "name": "",
          "type": "uint256"
        }
      ],
      "name": "approve",
      "outputs": [],
      "stateMutability": "pure",
      "type": "function"
    },
    {
      "inputs": [
        {
          "internalType": "address",
          "name": "owner",
          "type": "address"
        }
      ],
      "name": "balanceOf",
      "outputs": [
        {
          "internalType": "uint256",
          "name": "",
          "type": "uint256"
        }
      ],
      "stateMutability": "view",
      "type": "function"
    },
    {
      "inputs": [
        {
          "internalType": "uint256",
          "name": "",
          "type": "uint256"
        }
      ],
      "name": "credentialOf",
      "outputs": [
        {
          "internalType": "bytes32",
          "name": "credentialHash",
          "type": "bytes32"
        },
        {
          "internalType": "uint64",
          "name": "issuedAt",
          "type": "uint64"
        },
        {
          "internalType": "uint64",
          "name": "expiresAt",
          "type": "uint64"
        },
        {
          "internalType": "bool",
          "name": "revoked",
          "type": "bool"
        },
        {
          "internalType": "string",
          "name": "uri",
          "type": "string"
        }
      ],
      "stateMutability": "view",
      "type": "function"
    },
    {
      "inputs": [
        {
          "internalType": "uint256",
          "name": "tokenId",
          "type": "uint256"
        }
      ],
      "name": "getApproved",
      "outputs": [
        {
          "internalType": "address",
          "name": "",
          "type": "address"
        }
      ],
      "stateMutability": "view",
      "type": "function"
    },
    {
      "inputs": [
        {
          "internalType": "address",
          "name": "investor",
          "type": "address"
        }
      ],
      "name": "getInvestorToken",
      "outputs": [
        {
          "internalType": "uint256",
          "name": "",
          "type": "uint256"
        }
      ],
      "stateMutability": "view",
      "type": "function"
    },
    {
      "inputs": [
        {
          "internalType": "bytes32",
          "name": "role",
          "type": "bytes32"
        }
      ],
      "name": "getRoleAdmin",
      "outputs": [
        {
          "internalType": "bytes32",
          "name": "",
          "type": "bytes32"
        }
      ],
      "stateMutability": "view",
      "type": "function"
    },
    {
      "inputs": [
        {
          "internalType": "bytes32",
          "name": "role",
          "type": "bytes32"
        },
        {
          "internalType": "address",
          "name": "account",
          "type": "address"
        }
      ],
      "name": "grantRole",
      "outputs": [],
      "stateMutability": "nonpayable",
      "type": "function"
    },
    {
      "inputs": [
        {
          "internalType": "bytes32",
          "name": "role",
          "type": "bytes32"
        },
        {
          "internalType": "address",
          "name": "account",
          "type": "address"
        }
      ],
      "name": "hasRole",
      "outputs": [
        {
          "internalType": "bool",
          "name": "",
          "type": "bool"
        }
      ],
      "stateMutability": "view",
      "type": "function"
    },
    {
      "inputs": [
        {
          "internalType": "address",
          "name": "owner",
          "type": "address"
        },
        {
          "internalType": "address",
          "name": "operator",
          "type": "address"
        }
      ],
      "name": "isApprovedForAll",
      "outputs": [
        {
          "internalType": "bool",
          "name": "",
          "type": "bool"
        }
      ],
      "stateMutability": "view",
      "type": "function"
    },
    {
      "inputs": [
        {
          "internalType": "uint256",
          "name": "tokenId",
          "type": "uint256"
        }
      ],
      "name": "isValid",
      "outputs": [
        {
          "internalType": "bool",
          "name": "",
          "type": "bool"
        }
      ],
      "stateMutability": "view",
      "type": "function"
    },
    {
      "inputs": [
        {
          "internalType": "address",
          "name": "investor",
          "type": "address"
        }
      ],
      "name": "isVerifiedInvestor",
      "outputs": [
        {
          "internalType": "bool",
          "name": "",
          "type": "bool"
        }
      ],
      "stateMutability": "view",
      "type": "function"
    },
    {
      "inputs": [
        {
          "internalType": "address",
          "name": "to",
          "type": "address"
        },
        {
          "internalType": "bytes32",
          "name": "credentialHash",
          "type": "bytes32"
        },
        {
          "internalType": "uint64",
          "name": "expiresAt",
          "type": "uint64"
        },
        {
          "internalType": "string",
          "name": "uri",
          "type": "string"
        }
      ],
      "name": "mint",
      "outputs": [
        {
          "internalType": "uint256",
          "name": "",
          "type": "uint256"
        }
      ],
      "stateMutability": "nonpayable",
      "type": "function"
    },
    {
      "inputs": [],
      "name": "name",
      "outputs": [
        {
          "internalType": "string",
          "name": "",
          "type": "string"
        }
      ],
      "stateMutability": "view",
      "type": "function"
    },
    {
      "inputs": [
        {
          "internalType": "uint256",
          "name": "tokenId",
          "type": "uint256"
        }
      ],
      "name": "ownerOf",
      "outputs": [
        {
          "internalType": "address",
          "name": "",
          "type": "address"
        }
      ],
      "stateMutability": "view",
      "type": "function"
    },
    {
      "inputs": [
        {
          "internalType": "uint256",
          "name": "tokenId",
          "type": "uint256"
        },
        {
          "internalType": "uint64",
          "name": "newExpiry",
          "type": "uint64"
        }
      ],
      "name": "renew",
      "outputs": [],
      "stateMutability": "nonpayable",
      "type": "function"
    },
    {
      "inputs": [
        {
          "internalType": "bytes32",
          "name": "role",
          "type": "bytes32"
        },
        {
          "internalType": "address",
          "name": "callerConfirmation",
          "type": "address"
        }
      ],
      "name": "renounceRole",
      "outputs": [],
      "stateMutability": "nonpayable",
      "type": "function"
    },
    {
      "inputs": [
        {
          "internalType": "uint256",
          "name": "tokenId",
          "type": "uint256"
        }
      ],
      "name": "revoke",
      "outputs": [],
      "stateMutability": "nonpayable",
      "type": "function"
    },
    {
      "inputs": [
        {
          "internalType": "bytes32",
          "name": "role",
          "type": "bytes32"
        },
        {
          "internalType": "address",
          "name": "account",
          "type": "address"
        }
      ],
      "name": "revokeRole",
      "outputs": [],
      "stateMutability": "nonpayable",
      "type": "function"
    },
    {
      "inputs": [
        {
          "internalType": "address",
          "name": "from",
          "type": "address"
        },
        {
          "internalType": "address",
          "name": "to",
          "type": "address"
        },
        {
          "internalType": "uint256",
          "name": "tokenId",
          "type": "uint256"
        }
      ],
      "name": "safeTransferFrom",
      "outputs": [],
      "stateMutability": "nonpayable",
      "type": "function"
    },
    {
      "inputs": [
        {
          "internalType": "address",
          "name": "from",
          "type": "address"
        },
        {
          "internalType": "address",
          "name": "to",
          "type": "address"
        },
        {
          "internalType": "uint256",
          "name": "tokenId",
          "type": "uint256"
        },
        {
          "internalType": "bytes",
          "name": "data",
          "type": "bytes"
        }
      ],
      "name": "safeTransferFrom",
      "outputs": [],
      "stateMutability": "nonpayable",
      "type": "function"
    },
    {
      "inputs": [
        {
          "internalType": "address",
          "name": "",
          "type": "address"
        },
        {
          "internalType": "bool",
          "name": "",
          "type": "bool"
        }
      ],
      "name": "setApprovalForAll",
      "outputs": [],
      "stateMutability": "pure",
      "type": "function"
    },
    {
      "inputs": [
        {
          "internalType": "bytes4",
          "name": "interfaceId",
          "type": "bytes4"
        }
      ],
      "name": "supportsInterface",
      "outputs": [
        {
          "internalType": "bool",
          "name": "",
          "type": "bool"
        }
      ],
      "stateMutability": "view",
      "type": "function"
    },
    {
      "inputs": [],
      "name": "symbol",
      "outputs": [
        {
          "internalType": "string",
          "name": "",
          "type": "string"
        }
      ],
      "stateMutability": "view",
      "type": "function"
    },
    {
      "inputs": [
        {
          "internalType": "address",
          "name": "",
          "type": "address"
        }
      ],
      "name": "tokenOf",
      "outputs": [
        {
          "internalType": "uint256",
          "name": "",
          "type": "uint256"
        }
      ],
      "stateMutability": "view",
      "type": "function"
    },
    {
      "inputs": [
        {
          "internalType": "uint256",
          "name": "tokenId",
          "type": "uint256"
        }
      ],
      "name": "tokenURI",
      "outputs": [
        {
          "internalType": "string",
          "name": "",
          "type": "string"
        }
      ],
      "stateMutability": "view",
      "type": "function"
    },
    {
      "inputs": [
        {
          "internalType": "address",
          "name": "from",
          "type": "address"
        },
        {
          "internalType": "address",
          "name": "to",
          "type": "address"
        },
        {
          "internalType": "uint256",
          "name": "tokenId",
          "type": "uint256"
        }
      ],
      "name": "transferFrom",
      "outputs": [],
      "stateMutability": "nonpayable",
      "type": "function"
    }
  ],
  "bytecode": "0x6080604052600160075534801561001557600080fd5b50604051613983380380613983833981810160405281019061003791906102e4565b6040518060400160405280602081526020017f43616d707573466f756e6465727320496e766573746f722050617373706f72748152506040518060400160405280600481526020017f434649500000000000000000000000000000000000000000000000000000000081525081600090816100b29190610561565b5080600190816100c29190610561565b5050506100d86000801b3361011060201b60201c565b506101097f114e74f6ea3bd819998f78687bfcb11b140da08e9b7d222fa9c1f1ba1f2aa1228261011060201b60201c565b5050610633565b6000610122838361020e60201b60201c565b6102035760016006600085815260200190815260200160002060000160008473ffffffffffffffffffffffffffffffffffffffff1673ffffffffffffffffffffffffffffffffffffffff16815260200190815260200160002060006101000a81548160ff0219169083151502179055506101a061027960201b60201c565b73ffffffffffffffffffffffffffffffffffffffff168273ffffffffffffffffffffffffffffffffffffffff16847f2f8788117e7eff1d82e926ec794901d17c78024a50270940304540a733656f0d60405160405180910390a460019050610208565b600090505b92915050565b60006006600084815260200190815260200160002060000160008373ffffffffffffffffffffffffffffffffffffffff1673ffffffffffffffffffffffffffffffffffffffff16815260200190815260200160002060009054906101000a900460ff16905092915050565b600033905090565b600080fd5b600073ffffffffffffffffffffffffffffffffffffffff82169050919050565b60006102b182610286565b9050919050565b6102c1816102a6565b81146102cc57600080fd5b50565b6000815190506102de816102b8565b92915050565b6000602082840312156102fa576102f9610281565b5b6000610308848285016102cf565b91505092915050565b600081519050919050565b7f4e487b7100000000000000000000000000000000000000000000000000000000600052604160045260246000fd5b7f4e487b7100000000000000000000000000000000000000000000000000000000600052602260045260246000fd5b6000600282049050600182168061039257607f821691505b6020821081036103a5576103a461034b565b5b50919050565b60008190508160005260206000209050919050565b60006020601f8301049050919050565b600082821b905092915050565b60006008830261040d7fffffffffffffffffffffffffffffffffffffffffffffffffffffffffffffffff826103d0565b61041786836103d0565b95508019841693508086168417925050509392505050565b6000819050919050565b6000819050919050565b600061045e6104596104548461042f565b610439565b61042f565b9050919050565b6000819050919050565b61047883610443565b61048c61048482610465565b8484546103dd565b825550505050565b600090565b6104a1610494565b6104ac81848461046f565b505050565b5b818110156104d0576104c5600082610499565b6001810190506104b2565b5050565b601f821115610515576104e6816103ab565b6104ef846103c0565b810160208510156104fe578190505b61051261050a856103c0565b8301826104b1565b50505b505050565b600082821c905092915050565b60006105386000198460080261051a565b1980831691505092915050565b60006105518383610527565b9150826002028217905092915050565b61056a82610311565b67ffffffffffffffff8111156105835761058261031c565b5b61058d825461037a565b6105988282856104d4565b600060209050601f8311600181146105cb57600084156105b9578287015190505b6105c38582610545565b86555061062b565b601f1984166105d9866103ab565b60005b82811015610601578489015182556001820191506020850194506020810190506105dc565b8683101561061e578489015161061a601f891682610527565b8355505b6001600288020188555050505b505050505050565b613341806106426000396000f3fe608060405234801561001057600080fd5b50600436106101c45760003560e01c806370a08231116100f9578063b88d4fde11610097578063d469e0c111610071578063d469e0c11461054d578063d547741f14610581578063e985e9c51461059d578063f577a500146105cd576101c4565b8063b88d4fde146104d1578063c1f9a79e146104ed578063c87b56dd1461051d576101c4565b806391d14854116100d357806391d148541461044957806395d89b4114610479578063a217fddf14610497578063a22cb465146104b5576101c4565b806370a08231146103cb57806382aefa24146103fb5780638ada401714610419576101c4565b8063248a9ca31161016657806342842e0e1161014057806342842e0e1461033357806342ec38e21461034f5780635569f33d1461037f5780636352211e1461039b576101c4565b8063248a9ca3146102cb5780632f2ff15d146102fb57806336568abe14610317576101c4565b8063095ea7b3116101a2578063095ea7b3146102475780631fa1b60c1461026357806320c5429b1461029357806323b872dd146102af576101c4565b806301ffc9a7146101c957806306fdde03146101f9578063081812fc14610217575b600080fd5b6101e360048036038101906101de9190612427565b6105fd565b6040516101f0919061246f565b60405180910390f35b61020161060f565b60405161020e919061251a565b60405180910390f35b610231600480360381019061022c9190612572565b6106a1565b60405161023e91906125e0565b60405180910390f35b610261600480360381019061025c9190612627565b6106bd565b005b61027d60048036038101906102789190612667565b6106f8565b60405161028a919061246f565b60405180910390f35b6102ad60048036038101906102a89190612572565b610761565b005b6102c960048036038101906102c49190612694565b610833565b005b6102e560048036038101906102e0919061271d565b610935565b6040516102f29190612759565b60405180910390f35b61031560048036038101906103109190612774565b610955565b005b610331600480360381019061032c9190612774565b610977565b005b61034d60048036038101906103489190612694565b6109f2565b005b61036960048036038101906103649190612667565b610a12565b60405161037691906127c3565b60405180910390f35b6103996004803603810190610394919061281e565b610a2a565b005b6103b560048036038101906103b09190612572565b610b45565b6040516103c291906125e0565b60405180910390f35b6103e560048036038101906103e09190612667565b610b57565b6040516103f291906127c3565b60405180910390f35b610403610c11565b6040516104109190612759565b60405180910390f35b610433600480360381019061042e91906128c3565b610c35565b60405161044091906127c3565b60405180910390f35b610463600480360381019061045e9190612774565b610f4e565b604051610470919061246f565b60405180910390f35b610481610fb9565b60405161048e919061251a565b60405180910390f35b61049f61104b565b6040516104ac9190612759565b60405180910390f35b6104cf60048036038101906104ca9190612977565b611052565b005b6104eb60048036038101906104e69190612ae7565b61108d565b005b61050760048036038101906105029190612667565b6110b2565b60405161051491906127c3565b60405180910390f35b61053760048036038101906105329190612572565b6110fb565b604051610544919061251a565b60405180910390f35b61056760048036038101906105629190612572565b6111eb565b604051610578959493929190612b79565b60405180910390f35b61059b60048036038101906105969190612774565b6112de565b005b6105b760048036038101906105b29190612bd3565b611300565b6040516105c4919061246f565b60405180910390f35b6105e760048036038101906105e29190612572565b611394565b6040516105f4919061246f565b60405180910390f35b600061060882611543565b9050919050565b60606000805461061e90612c42565b80601f016020809104026020016040519081016040528092919081815260200182805461064a90612c42565b80156106975780601f1061066c57610100808354040283529160200191610697565b820191906000526020600020905b81548152906001019060200180831161067a57829003601f168201915b5050505050905090565b60006106ac826115bd565b506106b682611645565b9050919050565b6040517f08c379a00000000000000000000000000000000000000000000000000000000081526004016106ef90612cbf565b60405180910390fd5b600080600960008473ffffffffffffffffffffffffffffffffffffffff1673ffffffffffffffffffffffffffffffffffffffff1681526020019081526020016000205490506000810361074f57600091505061075c565b61075881611394565b9150505b919050565b7f114e74f6ea3bd819998f78687bfcb11b140da08e9b7d222fa9c1f1ba1f2aa12261078b81611682565b61079482611696565b6107d3576040517f08c379a00000000000000000000000000000000000000000000000000000000081526004016107ca90612d2b565b60405180910390fd5b60016008600084815260200190815260200160002060010160106101000a81548160ff021916908315150217905550817f61e27b0bfd8e18e6b92ec32ce1c28bb698d27bfe93e84c7e94d4db0a3135c76060405160405180910390a25050565b600073ffffffffffffffffffffffffffffffffffffffff168273ffffffffffffffffffffffffffffffffffffffff16036108a55760006040517f64a0ae9200000000000000000000000000000000000000000000000000000000815260040161089c91906125e0565b60405180910390fd5b60006108b983836108b46116d7565b6116df565b90508373ffffffffffffffffffffffffffffffffffffffff168173ffffffffffffffffffffffffffffffffffffffff161461092f578382826040517f64283d7b00000000000000000000000000000000000000000000000000000000815260040161092693929190612d4b565b60405180910390fd5b50505050565b600060066000838152602001908152602001600020600101549050919050565b61095e82610935565b61096781611682565b61097183836117ac565b50505050565b61097f6116d7565b73ffffffffffffffffffffffffffffffffffffffff168173ffffffffffffffffffffffffffffffffffffffff16146109e3576040517f6697b23200000000000000000000000000000000000000000000000000000000815260040160405180910390fd5b6109ed828261189e565b505050565b610a0d8383836040518060200160405280600081525061108d565b505050565b60096020528060005260406000206000915090505481565b7f114e74f6ea3bd819998f78687bfcb11b140da08e9b7d222fa9c1f1ba1f2aa122610a5481611682565b610a5d83611696565b610a9c576040517f08c379a0000000000000000000000000000000000000000000000000000000008152600401610a9390612d2b565b60405180910390fd5b816008600085815260200190815260200160002060010160086101000a81548167ffffffffffffffff021916908367ffffffffffffffff16021790555060006008600085815260200190815260200160002060010160106101000a81548160ff021916908315150217905550827f0d114615a0df86bc46cedecf5767e4feebca97934923db1dd5818c8d5a6d06ea83604051610b389190612d82565b60405180910390a2505050565b6000610b50826115bd565b9050919050565b60008073ffffffffffffffffffffffffffffffffffffffff168273ffffffffffffffffffffffffffffffffffffffff1603610bca5760006040517f89c62b64000000000000000000000000000000000000000000000000000000008152600401610bc191906125e0565b60405180910390fd5b600360008373ffffffffffffffffffffffffffffffffffffffff1673ffffffffffffffffffffffffffffffffffffffff168152602001908152602001600020549050919050565b7f114e74f6ea3bd819998f78687bfcb11b140da08e9b7d222fa9c1f1ba1f2aa12281565b60007f114e74f6ea3bd819998f78687bfcb11b140da08e9b7d222fa9c1f1ba1f2aa122610c6181611682565b600073ffffffffffffffffffffffffffffffffffffffff168773ffffffffffffffffffffffffffffffffffffffff1603610cd0576040517f08c379a0000000000000000000000000000000000000000000000000000000008152600401610cc790612de9565b60405180910390fd5b6000600960008973ffffffffffffffffffffffffffffffffffffffff1673ffffffffffffffffffffffffffffffffffffffff1681526020019081526020016000205414610d52576040517f08c379a0000000000000000000000000000000000000000000000000000000008152600401610d4990612e55565b60405180910390fd5b600060076000815480929190610d6790612ea4565b919050559050610d778882611991565b6040518060a001604052808881526020014267ffffffffffffffff1681526020018767ffffffffffffffff16815260200160001515815260200186868080601f016020809104026020016040519081016040528093929190818152602001838380828437600081840152601f19601f82011690508083019250505050505050815250600860008381526020019081526020016000206000820151816000015560208201518160010160006101000a81548167ffffffffffffffff021916908367ffffffffffffffff16021790555060408201518160010160086101000a81548167ffffffffffffffff021916908367ffffffffffffffff16021790555060608201518160010160106101000a81548160ff0219169083151502179055506080820151816002019081610ea99190613098565b5090505080600960008a73ffffffffffffffffffffffffffffffffffffffff1673ffffffffffffffffffffffffffffffffffffffff16815260200190815260200160002081905550808873ffffffffffffffffffffffffffffffffffffffff167fc263b302aec62d29105026245f19e16f8e0137066ccd4a8bd941f716bd4096bb89604051610f389190612759565b60405180910390a3809250505095945050505050565b60006006600084815260200190815260200160002060000160008373ffffffffffffffffffffffffffffffffffffffff1673ffffffffffffffffffffffffffffffffffffffff16815260200190815260200160002060009054906101000a900460ff16905092915050565b606060018054610fc890612c42565b80601f0160208091040260200160405190810160405280929190818152602001828054610ff490612c42565b80156110415780601f1061101657610100808354040283529160200191611041565b820191906000526020600020905b81548152906001019060200180831161102457829003601f168201915b5050505050905090565b6000801b81565b6040517f08c379a000000000000000000000000000000000000000000000000000000000815260040161108490612cbf565b60405180910390fd5b611098848484610833565b6110ac6110a36116d7565b858585856119af565b50505050565b6000600960008373ffffffffffffffffffffffffffffffffffffffff1673ffffffffffffffffffffffffffffffffffffffff168152602001908152602001600020549050919050565b606061110682611696565b611145576040517f08c379a000000000000000000000000000000000000000000000000000000000815260040161113c90612d2b565b60405180910390fd5b60086000838152602001908152602001600020600201805461116690612c42565b80601f016020809104026020016040519081016040528092919081815260200182805461119290612c42565b80156111df5780601f106111b4576101008083540402835291602001916111df565b820191906000526020600020905b8154815290600101906020018083116111c257829003601f168201915b50505050509050919050565b60086020528060005260406000206000915090508060000154908060010160009054906101000a900467ffffffffffffffff16908060010160089054906101000a900467ffffffffffffffff16908060010160109054906101000a900460ff169080600201805461125b90612c42565b80601f016020809104026020016040519081016040528092919081815260200182805461128790612c42565b80156112d45780601f106112a9576101008083540402835291602001916112d4565b820191906000526020600020905b8154815290600101906020018083116112b757829003601f168201915b5050505050905085565b6112e782610935565b6112f081611682565b6112fa838361189e565b50505050565b6000600560008473ffffffffffffffffffffffffffffffffffffffff1673ffffffffffffffffffffffffffffffffffffffff16815260200190815260200160002060008373ffffffffffffffffffffffffffffffffffffffff1673ffffffffffffffffffffffffffffffffffffffff16815260200190815260200160002060009054906101000a900460ff16905092915050565b600061139f82611696565b6113ac576000905061153e565b6000600860008481526020019081526020016000206040518060a0016040529081600082015481526020016001820160009054906101000a900467ffffffffffffffff1667ffffffffffffffff1667ffffffffffffffff1681526020016001820160089054906101000a900467ffffffffffffffff1667ffffffffffffffff1667ffffffffffffffff1681526020016001820160109054906101000a900460ff1615151515815260200160028201805461146590612c42565b80601f016020809104026020016040519081016040528092919081815260200182805461149190612c42565b80156114de5780601f106114b3576101008083540402835291602001916114de565b820191906000526020600020905b8154815290600101906020018083116114c157829003601f168201915b50505050508152505090508060600151156114fd57600091505061153e565b6000816040015167ffffffffffffffff16141580156115295750806040015167ffffffffffffffff1642115b1561153857600091505061153e565b60019150505b919050565b60007f7965db0b000000000000000000000000000000000000000000000000000000007bffffffffffffffffffffffffffffffffffffffffffffffffffffffff1916827bffffffffffffffffffffffffffffffffffffffffffffffffffffffff191614806115b657506115b582611b60565b5b9050919050565b6000806115c983611c42565b9050600073ffffffffffffffffffffffffffffffffffffffff168173ffffffffffffffffffffffffffffffffffffffff160361163c57826040517f7e27328900000000000000000000000000000000000000000000000000000000815260040161163391906127c3565b60405180910390fd5b80915050919050565b60006004600083815260200190815260200160002060009054906101000a900473ffffffffffffffffffffffffffffffffffffffff169050919050565b6116938161168e6116d7565b611c7f565b50565b60008073ffffffffffffffffffffffffffffffffffffffff166116b883611c42565b73ffffffffffffffffffffffffffffffffffffffff1614159050919050565b600033905090565b6000806116eb84611c42565b9050600073ffffffffffffffffffffffffffffffffffffffff168173ffffffffffffffffffffffffffffffffffffffff16141580156117575750600073ffffffffffffffffffffffffffffffffffffffff168573ffffffffffffffffffffffffffffffffffffffff1614155b15611797576040517f08c379a000000000000000000000000000000000000000000000000000000000815260040161178e906131b6565b60405180910390fd5b6117a2858585611cd0565b9150509392505050565b60006117b88383610f4e565b6118935760016006600085815260200190815260200160002060000160008473ffffffffffffffffffffffffffffffffffffffff1673ffffffffffffffffffffffffffffffffffffffff16815260200190815260200160002060006101000a81548160ff0219169083151502179055506118306116d7565b73ffffffffffffffffffffffffffffffffffffffff168273ffffffffffffffffffffffffffffffffffffffff16847f2f8788117e7eff1d82e926ec794901d17c78024a50270940304540a733656f0d60405160405180910390a460019050611898565b600090505b92915050565b60006118aa8383610f4e565b156119865760006006600085815260200190815260200160002060000160008473ffffffffffffffffffffffffffffffffffffffff1673ffffffffffffffffffffffffffffffffffffffff16815260200190815260200160002060006101000a81548160ff0219169083151502179055506119236116d7565b73ffffffffffffffffffffffffffffffffffffffff168273ffffffffffffffffffffffffffffffffffffffff16847ff6391f5c32d9c69d2a47ea670b442974b53935d1edc7fd64eb21e047a839171b60405160405180910390a46001905061198b565b600090505b92915050565b6119ab828260405180602001604052806000815250611eea565b5050565b60008373ffffffffffffffffffffffffffffffffffffffff163b1115611b59578273ffffffffffffffffffffffffffffffffffffffff1663150b7a02868685856040518563ffffffff1660e01b8152600401611a0e949392919061322b565b6020604051808303816000875af1925050508015611a4a57506040513d601f19601f82011682018060405250810190611a47919061328c565b60015b611ace573d8060008114611a7a576040519150601f19603f3d011682016040523d82523d6000602084013e611a7f565b606091505b506000815103611ac657836040517f64a0ae92000000000000000000000000000000000000000000000000000000008152600401611abd91906125e0565b60405180910390fd5b805160208201fd5b63150b7a0260e01b7bffffffffffffffffffffffffffffffffffffffffffffffffffffffff1916817bffffffffffffffffffffffffffffffffffffffffffffffffffffffff191614611b5757836040517f64a0ae92000000000000000000000000000000000000000000000000000000008152600401611b4e91906125e0565b60405180910390fd5b505b5050505050565b60007f80ac58cd000000000000000000000000000000000000000000000000000000007bffffffffffffffffffffffffffffffffffffffffffffffffffffffff1916827bffffffffffffffffffffffffffffffffffffffffffffffffffffffff19161480611c2b57507f5b5e139f000000000000000000000000000000000000000000000000000000007bffffffffffffffffffffffffffffffffffffffffffffffffffffffff1916827bffffffffffffffffffffffffffffffffffffffffffffffffffffffff1916145b80611c3b5750611c3a82611f0e565b5b9050919050565b60006002600083815260200190815260200160002060009054906101000a900473ffffffffffffffffffffffffffffffffffffffff169050919050565b611c898282610f4e565b611ccc5780826040517fe2517d3f000000000000000000000000000000000000000000000000000000008152600401611cc39291906132b9565b60405180910390fd5b5050565b600080611cdc84611c42565b9050600073ffffffffffffffffffffffffffffffffffffffff168373ffffffffffffffffffffffffffffffffffffffff1614611d1e57611d1d818486611f78565b5b600073ffffffffffffffffffffffffffffffffffffffff168173ffffffffffffffffffffffffffffffffffffffff1614611daf57611d6060008560008061203c565b6001600360008373ffffffffffffffffffffffffffffffffffffffff1673ffffffffffffffffffffffffffffffffffffffff168152602001908152602001600020600082825403925050819055505b600073ffffffffffffffffffffffffffffffffffffffff168573ffffffffffffffffffffffffffffffffffffffff1614611e32576001600360008773ffffffffffffffffffffffffffffffffffffffff1673ffffffffffffffffffffffffffffffffffffffff168152602001908152602001600020600082825401925050819055505b846002600086815260200190815260200160002060006101000a81548173ffffffffffffffffffffffffffffffffffffffff021916908373ffffffffffffffffffffffffffffffffffffffff160217905550838573ffffffffffffffffffffffffffffffffffffffff168273ffffffffffffffffffffffffffffffffffffffff167fddf252ad1be2c89b69c2b068fc378daa952ba7f163c4a11628f55a4df523b3ef60405160405180910390a4809150509392505050565b611ef48383612201565b611f09611eff6116d7565b60008585856119af565b505050565b60007f01ffc9a7000000000000000000000000000000000000000000000000000000007bffffffffffffffffffffffffffffffffffffffffffffffffffffffff1916827bffffffffffffffffffffffffffffffffffffffffffffffffffffffff1916149050919050565b611f838383836122fa565b61203757600073ffffffffffffffffffffffffffffffffffffffff168373ffffffffffffffffffffffffffffffffffffffff1603611ff857806040517f7e273289000000000000000000000000000000000000000000000000000000008152600401611fef91906127c3565b60405180910390fd5b81816040517f177e802f00000000000000000000000000000000000000000000000000000000815260040161202e9291906132e2565b60405180910390fd5b505050565b80806120755750600073ffffffffffffffffffffffffffffffffffffffff168273ffffffffffffffffffffffffffffffffffffffff1614155b156121a9576000612085846115bd565b9050600073ffffffffffffffffffffffffffffffffffffffff168373ffffffffffffffffffffffffffffffffffffffff16141580156120f057508273ffffffffffffffffffffffffffffffffffffffff168173ffffffffffffffffffffffffffffffffffffffff1614155b801561210357506121018184611300565b155b1561214557826040517fa9fbf51f00000000000000000000000000000000000000000000000000000000815260040161213c91906125e0565b60405180910390fd5b81156121a757838573ffffffffffffffffffffffffffffffffffffffff168273ffffffffffffffffffffffffffffffffffffffff167f8c5be1e5ebec7d5bd14f71427d1e84f3dd0314c0f7b2291e5b200ac8c7c3b92560405160405180910390a45b505b836004600085815260200190815260200160002060006101000a81548173ffffffffffffffffffffffffffffffffffffffff021916908373ffffffffffffffffffffffffffffffffffffffff16021790555050505050565b600073ffffffffffffffffffffffffffffffffffffffff168273ffffffffffffffffffffffffffffffffffffffff16036122735760006040517f64a0ae9200000000000000000000000000000000000000000000000000000000815260040161226a91906125e0565b60405180910390fd5b6000612281838360006116df565b9050600073ffffffffffffffffffffffffffffffffffffffff168173ffffffffffffffffffffffffffffffffffffffff16146122f55760006040517f73c6ac6e0000000000000000000000000000000000000000000000000000000081526004016122ec91906125e0565b60405180910390fd5b505050565b60008073ffffffffffffffffffffffffffffffffffffffff168373ffffffffffffffffffffffffffffffffffffffff16141580156123b257508273ffffffffffffffffffffffffffffffffffffffff168473ffffffffffffffffffffffffffffffffffffffff16148061237357506123728484611300565b5b806123b157508273ffffffffffffffffffffffffffffffffffffffff1661239983611645565b73ffffffffffffffffffffffffffffffffffffffff16145b5b90509392505050565b6000604051905090565b600080fd5b600080fd5b60007fffffffff0000000000000000000000000000000000000000000000000000000082169050919050565b612404816123cf565b811461240f57600080fd5b50565b600081359050612421816123fb565b92915050565b60006020828403121561243d5761243c6123c5565b5b600061244b84828501612412565b91505092915050565b60008115159050919050565b61246981612454565b82525050565b60006020820190506124846000830184612460565b92915050565b600081519050919050565b600082825260208201905092915050565b60005b838110156124c45780820151818401526020810190506124a9565b60008484015250505050565b6000601f19601f8301169050919050565b60006124ec8261248a565b6124f68185612495565b93506125068185602086016124a6565b61250f816124d0565b840191505092915050565b6000602082019050818103600083015261253481846124e1565b905092915050565b6000819050919050565b61254f8161253c565b811461255a57600080fd5b50565b60008135905061256c81612546565b92915050565b600060208284031215612588576125876123c5565b5b60006125968482850161255d565b91505092915050565b600073ffffffffffffffffffffffffffffffffffffffff82169050919050565b60006125ca8261259f565b9050919050565b6125da816125bf565b82525050565b60006020820190506125f560008301846125d1565b92915050565b612604816125bf565b811461260f57600080fd5b50565b600081359050612621816125fb565b92915050565b6000806040838503121561263e5761263d6123c5565b5b600061264c85828601612612565b925050602061265d8582860161255d565b9150509250929050565b60006020828403121561267d5761267c6123c5565b5b600061268b84828501612612565b91505092915050565b6000806000606084860312156126ad576126ac6123c5565b5b60006126bb86828701612612565b93505060206126cc86828701612612565b92505060406126dd8682870161255d565b9150509250925092565b6000819050919050565b6126fa816126e7565b811461270557600080fd5b50565b600081359050612717816126f1565b92915050565b600060208284031215612733576127326123c5565b5b600061274184828501612708565b91505092915050565b612753816126e7565b82525050565b600060208201905061276e600083018461274a565b92915050565b6000806040838503121561278b5761278a6123c5565b5b600061279985828601612708565b92505060206127aa85828601612612565b9150509250929050565b6127bd8161253c565b82525050565b60006020820190506127d860008301846127b4565b92915050565b600067ffffffffffffffff82169050919050565b6127fb816127de565b811461280657600080fd5b50565b600081359050612818816127f2565b92915050565b60008060408385031215612835576128346123c5565b5b60006128438582860161255d565b925050602061285485828601612809565b9150509250929050565b600080fd5b600080fd5b600080fd5b60008083601f8401126128835761288261285e565b5b8235905067ffffffffffffffff8111156128a05761289f612863565b5b6020830191508360018202830111156128bc576128bb612868565b5b9250929050565b6000806000806000608086880312156128df576128de6123c5565b5b60006128ed88828901612612565b95505060206128fe88828901612708565b945050604061290f88828901612809565b935050606086013567ffffffffffffffff8111156129305761292f6123ca565b5b61293c8882890161286d565b92509250509295509295909350565b61295481612454565b811461295f57600080fd5b50565b6000813590506129718161294b565b92915050565b6000806040838503121561298e5761298d6123c5565b5b600061299c85828601612612565b92505060206129ad85828601612962565b9150509250929050565b600080fd5b7f4e487b7100000000000000000000000000000000000000000000000000000000600052604160045260246000fd5b6129f4826124d0565b810181811067ffffffffffffffff82111715612a1357612a126129bc565b5b80604052505050565b6000612a266123bb565b9050612a3282826129eb565b919050565b600067ffffffffffffffff821115612a5257612a516129bc565b5b612a5b826124d0565b9050602081019050919050565b82818337600083830152505050565b6000612a8a612a8584612a37565b612a1c565b905082815260208101848484011115612aa657612aa56129b7565b5b612ab1848285612a68565b509392505050565b600082601f830112612ace57612acd61285e565b5b8135612ade848260208601612a77565b91505092915050565b60008060008060808587031215612b0157612b006123c5565b5b6000612b0f87828801612612565b9450506020612b2087828801612612565b9350506040612b318782880161255d565b925050606085013567ffffffffffffffff811115612b5257612b516123ca565b5b612b5e87828801612ab9565b91505092959194509250565b612b73816127de565b82525050565b600060a082019050612b8e600083018861274a565b612b9b6020830187612b6a565b612ba86040830186612b6a565b612bb56060830185612460565b8181036080830152612bc781846124e1565b90509695505050505050565b60008060408385031215612bea57612be96123c5565b5b6000612bf885828601612612565b9250506020612c0985828601612612565b9150509250929050565b7f4e487b7100000000000000000000000000000000000000000000000000000000600052602260045260246000fd5b60006002820490506001821680612c5a57607f821691505b602082108103612c6d57612c6c612c13565b5b50919050565b7f5342543a20617070726f76616c2064697361626c656400000000000000000000600082015250565b6000612ca9601683612495565b9150612cb482612c73565b602082019050919050565b60006020820190508181036000830152612cd881612c9c565b9050919050565b7f4e6f6e6578697374656e7420746f6b656e000000000000000000000000000000600082015250565b6000612d15601183612495565b9150612d2082612cdf565b602082019050919050565b60006020820190508181036000830152612d4481612d08565b9050919050565b6000606082019050612d6060008301866125d1565b612d6d60208301856127b4565b612d7a60408301846125d1565b949350505050565b6000602082019050612d976000830184612b6a565b92915050565b7f496e76616c696420616464726573730000000000000000000000000000000000600082015250565b6000612dd3600f83612495565b9150612dde82612d9d565b602082019050919050565b60006020820190508181036000830152612e0281612dc6565b9050919050565b7f416c72656164792068617320746f6b656e000000000000000000000000000000600082015250565b6000612e3f601183612495565b9150612e4a82612e09565b602082019050919050565b60006020820190508181036000830152612e6e81612e32565b9050919050565b7f4e487b7100000000000000000000000000000000000000000000000000000000600052601160045260246000fd5b6000612eaf8261253c565b91507fffffffffffffffffffffffffffffffffffffffffffffffffffffffffffffffff8203612ee157612ee0612e75565b5b600182019050919050565b60008190508160005260206000209050919050565b60006020601f8301049050919050565b600082821b905092915050565b600060088302612f4e7fffffffffffffffffffffffffffffffffffffffffffffffffffffffffffffffff82612f11565b612f588683612f11565b95508019841693508086168417925050509392505050565b6000819050919050565b6000612f95612f90612f8b8461253c565b612f70565b61253c565b9050919050565b6000819050919050565b612faf83612f7a565b612fc3612fbb82612f9c565b848454612f1e565b825550505050565b600090565b612fd8612fcb565b612fe3818484612fa6565b505050565b5b8181101561300757612ffc600082612fd0565b600181019050612fe9565b5050565b601f82111561304c5761301d81612eec565b61302684612f01565b81016020851015613035578190505b61304961304185612f01565b830182612fe8565b50505b505050565b600082821c905092915050565b600061306f60001984600802613051565b1980831691505092915050565b6000613088838361305e565b9150826002028217905092915050565b6130a18261248a565b67ffffffffffffffff8111156130ba576130b96129bc565b5b6130c48254612c42565b6130cf82828561300b565b600060209050601f83116001811461310257600084156130f0578287015190505b6130fa858261307c565b865550613162565b601f19841661311086612eec565b60005b8281101561313857848901518255600182019150602085019450602081019050613113565b868310156131555784890151613151601f89168261305e565b8355505b6001600288020188555050505b505050505050565b7f5342543a206e6f6e2d7472616e7366657261626c650000000000000000000000600082015250565b60006131a0601583612495565b91506131ab8261316a565b602082019050919050565b600060208201905081810360008301526131cf81613193565b9050919050565b600081519050919050565b600082825260208201905092915050565b60006131fd826131d6565b61320781856131e1565b93506132178185602086016124a6565b613220816124d0565b840191505092915050565b600060808201905061324060008301876125d1565b61324d60208301866125d1565b61325a60408301856127b4565b818103606083015261326c81846131f2565b905095945050505050565b600081519050613286816123fb565b92915050565b6000602082840312156132a2576132a16123c5565b5b60006132b084828501613277565b91505092915050565b60006040820190506132ce60008301856125d1565b6132db602083018461274a565b9392505050565b60006040820190506132f760008301856125d1565b61330460208301846127b4565b939250505056fea2646970667358221220e324a1060aae759da98bdd16bf07878f5f73636c7c2f512da2d4d558d6808acc64736f6c634300081c0033",
  "linkReferences": {},
  "deployedLinkReferences": {}
}